{
  "_format": "hh-sol-artifact-1",
  "contractName": "DiamondTracking",
  "sourceName": "contracts/DiamondTracking.sol",
  "abi": [
    {
      "inputs": [],
      "stateMutability": "nonpayable",
      "type": "constructor"
    },
    {
      "anonymous": false,
      "inputs": [
        {
          "indexed": true,
          "internalType": "address",
          "name": "owner",
          "type": "address"
        },
        {
          "indexed": true,
          "internalType": "address",
          "name": "approved",
          "type": "address"
        },
        {
          "indexed": true,
          "internalType": "uint256",
          "name": "tokenId",
          "type": "uint256"
        }
      ],
      "name": "Approval",
      "type": "event"
    },
    {
      "anonymous": false,
      "inputs": [
        {
          "indexed": true,
          "internalType": "address",
          "name": "owner",
          "type": "address"
        },
        {
          "indexed": true,
          "internalType": "address",
          "name": "operator",
          "type": "address"
        },
        {
          "indexed": false,
          "internalType": "bool",
          "name": "approved",
          "type": "bool"
        }
      ],
      "name": "ApprovalForAll",
      "type": "event"
    },
    {
      "anonymous": false,
      "inputs": [
        {
          "indexed": true,
          "internalType": "uint256",
          "name": "tokenId",
          "type": "uint256"
        },
        {
          "indexed": true,
          "internalType": "address",
          "name": "owner",
          "type": "address"
        }
      ],
      "name": "CertificateCreated",
      "type": "event"
    },
    {
      "anonymous": false,
      "inputs": [
        {
          "indexed": true,
          "internalType": "uint256",
          "name": "tokenId",
          "type": "uint256"
        },
        {
          "indexed": false,
          "internalType": "string",
          "name": "description",
          "type": "string"
        }
      ],
      "name": "EventLogged",
      "type": "event"
    },
    {
      "anonymous": false,
      "inputs": [
        {
          "indexed": true,
          "internalType": "address",
          "name": "previousOwner",
          "type": "address"
        },
        {
          "indexed": true,
          "internalType": "address",
          "name": "newOwner",
          "type": "address"
        }
      ],
      "name": "OwnershipTransferred",
      "type": "event"
    },
    {
      "anonymous": false,
      "inputs": [
        {
          "indexed": true,
          "internalType": "uint256",
          "name": "tokenId",
          "type": "uint256"
        },
        {
          "indexed": true,
          "internalType": "address",
          "name": "previousOwner",
          "type": "address"
        },
        {
          "indexed": true,
          "internalType": "address",
          "name": "newOwner",
          "type": "address"
        }
      ],
      "name": "OwnershipTransferred",
      "type": "event"
    },
    {
      "anonymous": false,
      "inputs": [
        {
          "indexed": true,
          "internalType": "address",
          "name": "from",
          "type": "address"
        },
        {
          "indexed": true,
          "internalType": "address",
          "name": "to",
          "type": "address"
        },
        {
          "indexed": true,
          "internalType": "uint256",
          "name": "tokenId",
          "type": "uint256"
        }
      ],
      "name": "Transfer",
      "type": "event"
    },
    {
      "inputs": [
        {
          "internalType": "address",
          "name": "to",
          "type": "address"
        },
        {
          "internalType": "uint256",
          "name": "tokenId",
          "type": "uint256"
        }
      ],
      "name": "approve",
      "outputs": [],
      "stateMutability": "nonpayable",
      "type": "function"
    },
    {
      "inputs": [
        {
          "internalType": "address",
          "name": "manufacturer",
          "type": "address"
        }
      ],
      "name": "authorizeManufacturer",
      "outputs": [],
      "stateMutability": "nonpayable",
      "type": "function"
    },
    {
      "inputs": [
        {
          "internalType": "address",
          "name": "",
          "type": "address"
        }
      ],
      "name": "authorizedManufacturers",
      "outputs": [
        {
          "internalType": "bool",
          "name": "",
          "type": "bool"
        }
      ],
      "stateMutability": "view",
      "type": "function"
    },
    {
      "inputs": [
        {
          "internalType": "address",
          "name": "owner",
          "type": "address"
        }
      ],
      "name": "balanceOf",
      "outputs": [
        {
          "internalType": "uint256",
          "name": "",
          "type": "uint256"
        }
      ],
      "stateMutability": "view",
      "type": "function"
    },
    {
      "inputs": [
        {
          "internalType": "uint256",
          "name": "tokenId",
          "type": "uint256"
        },
        {
          "internalType": "address",
          "name": "owner",
          "type": "address"
        }
      ],
      "name": "createCertificate",
      "outputs": [],
      "stateMutability": "nonpayable",
      "type": "function"
    },
    {
      "inputs": [
        {
          "internalType": "uint256",
          "name": "",
          "type": "uint256"
        }
      ],
      "name": "diamonds",
      "outputs": [
        {
          "internalType": "uint256",
          "name": "id",
          "type": "uint256"
        },
        {
          "internalType": "string",
          "name": "status",
          "type": "string"
        },
        {
          "internalType": "address",
          "name": "currentOwner",
          "type": "address"
        }
      ],
      "stateMutability": "view",
      "type": "function"
    },
    {
      "inputs": [
        {
          "internalType": "uint256",
          "name": "",
          "type": "uint256"
        },
        {
          "internalType": "uint256",
          "name": "",
          "type": "uint256"
        }
      ],
      "name": "events",
      "outputs": [
        {
          "internalType": "string",
          "name": "description",
          "type": "string"
        },
        {
          "internalType": "uint256",
          "name": "timestamp",
          "type": "uint256"
        }
      ],
      "stateMutability": "view",
      "type": "function"
    },
    {
      "inputs": [
        {
          "internalType": "uint256",
          "name": "tokenId",
          "type": "uint256"
        }
      ],
      "name": "getApproved",
      "outputs": [
        {
          "internalType": "address",
          "name": "",
          "type": "address"
        }
      ],
      "stateMutability": "view",
      "type": "function"
    },
    {
      "inputs": [
        {
          "internalType": "uint256",
          "name": "tokenId",
          "type": "uint256"
        }
      ],
      "name": "getEvents",
      "outputs": [
        {
          "components": [
            {
              "internalType": "string",
              "name": "description",
              "type": "string"
            },
            {
              "internalType": "uint256",
              "name": "timestamp",
              "type": "uint256"
            }
          ],
          "internalType": "struct DiamondTracking.Event[]",
          "name": "",
          "type": "tuple[]"
        }
      ],
      "stateMutability": "view",
      "type": "function"
    },
    {
      "inputs": [
        {
          "internalType": "address",
          "name": "owner",
          "type": "address"
        },
        {
          "internalType": "address",
          "name": "operator",
          "type": "address"
        }
      ],
      "name": "isApprovedForAll",
      "outputs": [
        {
          "internalType": "bool",
          "name": "",
          "type": "bool"
        }
      ],
      "stateMutability": "view",
      "type": "function"
    },
    {
      "inputs": [
        {
          "internalType": "uint256",
          "name": "tokenId",
          "type": "uint256"
        },
        {
          "internalType": "string",
          "name": "description",
          "type": "string"
        }
      ],
      "name": "logEvent",
      "outputs": [],
      "stateMutability": "nonpayable",
      "type": "function"
    },
    {
      "inputs": [],
      "name": "name",
      "outputs": [
        {
          "internalType": "string",
          "name": "",
          "type": "string"
        }
      ],
      "stateMutability": "view",
      "type": "function"
    },
    {
      "inputs": [],
      "name": "owner",
      "outputs": [
        {
          "internalType": "address",
          "name": "",
          "type": "address"
        }
      ],
      "stateMutability": "view",
      "type": "function"
    },
    {
      "inputs": [
        {
          "internalType": "uint256",
          "name": "tokenId",
          "type": "uint256"
        }
      ],
      "name": "ownerOf",
      "outputs": [
        {
          "internalType": "address",
          "name": "",
          "type": "address"
        }
      ],
      "stateMutability": "view",
      "type": "function"
    },
    {
      "inputs": [],
      "name": "renounceOwnership",
      "outputs": [],
      "stateMutability": "nonpayable",
      "type": "function"
    },
    {
      "inputs": [
        {
          "internalType": "address",
          "name": "manufacturer",
          "type": "address"
        }
      ],
      "name": "revokeManufacturer",
      "outputs": [],
      "stateMutability": "nonpayable",
      "type": "function"
    },
    {
      "inputs": [
        {
          "internalType": "address",
          "name": "from",
          "type": "address"
        },
        {
          "internalType": "address",
          "name": "to",
          "type": "address"
        },
        {
          "internalType": "uint256",
          "name": "tokenId",
          "type": "uint256"
        }
      ],
      "name": "safeTransferFrom",
      "outputs": [],
      "stateMutability": "nonpayable",
      "type": "function"
    },
    {
      "inputs": [
        {
          "internalType": "address",
          "name": "from",
          "type": "address"
        },
        {
          "internalType": "address",
          "name": "to",
          "type": "address"
        },
        {
          "internalType": "uint256",
          "name": "tokenId",
          "type": "uint256"
        },
        {
          "internalType": "bytes",
          "name": "data",
          "type": "bytes"
        }
      ],
      "name": "safeTransferFrom",
      "outputs": [],
      "stateMutability": "nonpayable",
      "type": "function"
    },
    {
      "inputs": [
        {
          "internalType": "address",
          "name": "operator",
          "type": "address"
        },
        {
          "internalType": "bool",
          "name": "approved",
          "type": "bool"
        }
      ],
      "name": "setApprovalForAll",
      "outputs": [],
      "stateMutability": "nonpayable",
      "type": "function"
    },
    {
      "inputs": [
        {
          "internalType": "bytes4",
          "name": "interfaceId",
          "type": "bytes4"
        }
      ],
      "name": "supportsInterface",
      "outputs": [
        {
          "internalType": "bool",
          "name": "",
          "type": "bool"
        }
      ],
      "stateMutability": "view",
      "type": "function"
    },
    {
      "inputs": [],
      "name": "symbol",
      "outputs": [
        {
          "internalType": "string",
          "name": "",
          "type": "string"
        }
      ],
      "stateMutability": "view",
      "type": "function"
    },
    {
      "inputs": [
        {
          "internalType": "uint256",
          "name": "tokenId",
          "type": "uint256"
        }
      ],
      "name": "tokenURI",
      "outputs": [
        {
          "internalType": "string",
          "name": "",
          "type": "string"
        }
      ],
      "stateMutability": "view",
      "type": "function"
    },
    {
      "inputs": [
        {
          "internalType": "uint256",
          "name": "tokenId",
          "type": "uint256"
        },
        {
          "internalType": "address",
          "name": "newOwner",
          "type": "address"
        }
      ],
      "name": "transferCertificateOwnership",
      "outputs": [],
      "stateMutability": "nonpayable",
      "type": "function"
    },
    {
      "inputs": [
        {
          "internalType": "address",
          "name": "from",
          "type": "address"
        },
        {
          "internalType": "address",
          "name": "to",
          "type": "address"
        },
        {
          "internalType": "uint256",
          "name": "tokenId",
          "type": "uint256"
        }
      ],
      "name": "transferFrom",
      "outputs": [],
      "stateMutability": "nonpayable",
      "type": "function"
    },
    {
      "inputs": [
        {
          "internalType": "address",
          "name": "newOwner",
          "type": "address"
        }
      ],
      "name": "transferOwnership",
      "outputs": [],
      "stateMutability": "nonpayable",
      "type": "function"
    }
  ],
  "bytecode": "0x60806040523480156200001157600080fd5b506040518060400160405280601281526020017f4a6577656c7279436572746966696361746500000000000000000000000000008152506040518060400160405280600381526020017f4a574c000000000000000000000000000000000000000000000000000000000081525081600090816200008f919062000412565b508060019081620000a1919062000412565b505050620000c4620000b8620000ca60201b60201c565b620000d260201b60201c565b620004f9565b600033905090565b6000600660009054906101000a900473ffffffffffffffffffffffffffffffffffffffff16905081600660006101000a81548173ffffffffffffffffffffffffffffffffffffffff021916908373ffffffffffffffffffffffffffffffffffffffff1602179055508173ffffffffffffffffffffffffffffffffffffffff168173ffffffffffffffffffffffffffffffffffffffff167f8be0079c531659141344cd1fd0a4f28419497f9722a3daafe3b4186f6b6457e060405160405180910390a35050565b600081519050919050565b7f4e487b7100000000000000000000000000000000000000000000000000000000600052604160045260246000fd5b7f4e487b7100000000000000000000000000000000000000000000000000000000600052602260045260246000fd5b600060028204905060018216806200021a57607f821691505b60208210810362000230576200022f620001d2565b5b50919050565b60008190508160005260206000209050919050565b60006020601f8301049050919050565b600082821b905092915050565b6000600883026200029a7fffffffffffffffffffffffffffffffffffffffffffffffffffffffffffffffff826200025b565b620002a686836200025b565b95508019841693508086168417925050509392505050565b6000819050919050565b6000819050919050565b6000620002f3620002ed620002e784620002be565b620002c8565b620002be565b9050919050565b6000819050919050565b6200030f83620002d2565b620003276200031e82620002fa565b84845462000268565b825550505050565b600090565b6200033e6200032f565b6200034b81848462000304565b505050565b5b8181101562000373576200036760008262000334565b60018101905062000351565b5050565b601f821115620003c2576200038c8162000236565b62000397846200024b565b81016020851015620003a7578190505b620003bf620003b6856200024b565b83018262000350565b50505b505050565b600082821c905092915050565b6000620003e760001984600802620003c7565b1980831691505092915050565b6000620004028383620003d4565b9150826002028217905092915050565b6200041d8262000198565b67ffffffffffffffff811115620004395762000438620001a3565b5b62000445825462000201565b6200045282828562000377565b600060209050601f8311600181146200048a576000841562000475578287015190505b620004818582620003f4565b865550620004f1565b601f1984166200049a8662000236565b60005b82811015620004c4578489015182556001820191506020850194506020810190506200049d565b86831015620004e45784890151620004e0601f891682620003d4565b8355505b6001600288020188555050505b505050505050565b613a0680620005096000396000f3fe608060405234801561001057600080fd5b50600436106101735760003560e01c80636352211e116100de57806395d89b4111610097578063bd687def11610071578063bd687def14610447578063c87b56dd14610477578063e985e9c5146104a7578063f2fde38b146104d757610173565b806395d89b41146103f1578063a22cb4651461040f578063b88d4fde1461042b57610173565b80636352211e1461031c57806370a082311461034c578063715018a61461037c57806383e6a4ab146103865780638a24bcb7146103a25780638da5cb5b146103d357610173565b806323b872dd1161013057806323b872dd1461024a57806324b04245146102665780633951e09b146102965780633ed7bb3d146102c857806342842e0e146102e45780634359b7ef1461030057610173565b806301ffc9a71461017857806306fdde03146101a8578063081812fc146101c6578063089e1b39146101f6578063095ea7b31461021257806318b452381461022e575b600080fd5b610192600480360381019061018d919061244d565b6104f3565b60405161019f9190612495565b60405180910390f35b6101b06105d5565b6040516101bd9190612540565b60405180910390f35b6101e060048036038101906101db9190612598565b610667565b6040516101ed9190612606565b60405180910390f35b610210600480360381019061020b919061264d565b6106ad565b005b61022c6004803603810190610227919061267a565b610708565b005b6102486004803603810190610243919061264d565b61081f565b005b610264600480360381019061025f91906126ba565b61087a565b005b610280600480360381019061027b919061264d565b6108da565b60405161028d9190612495565b60405180910390f35b6102b060048036038101906102ab9190612598565b6108fa565b6040516102bf9392919061271c565b60405180910390f35b6102e260048036038101906102dd919061275a565b6109cc565b005b6102fe60048036038101906102f991906126ba565b610b89565b005b61031a600480360381019061031591906128cf565b610ba9565b005b61033660048036038101906103319190612598565b610d2d565b6040516103439190612606565b60405180910390f35b6103666004803603810190610361919061264d565b610db3565b604051610373919061292b565b60405180910390f35b610384610e6a565b005b6103a0600480360381019061039b919061275a565b610e7e565b005b6103bc60048036038101906103b79190612946565b611050565b6040516103ca929190612986565b60405180910390f35b6103db611119565b6040516103e89190612606565b60405180910390f35b6103f9611143565b6040516104069190612540565b60405180910390f35b610429600480360381019061042491906129e2565b6111d5565b005b61044560048036038101906104409190612ac3565b6111eb565b005b610461600480360381019061045c9190612598565b61124d565b60405161046e9190612c9e565b60405180910390f35b610491600480360381019061048c9190612598565b6113a3565b60405161049e9190612540565b60405180910390f35b6104c160048036038101906104bc9190612cc0565b61140b565b6040516104ce9190612495565b60405180910390f35b6104f160048036038101906104ec919061264d565b61149f565b005b60007f80ac58cd000000000000000000000000000000000000000000000000000000007bffffffffffffffffffffffffffffffffffffffffffffffffffffffff1916827bffffffffffffffffffffffffffffffffffffffffffffffffffffffff191614806105be57507f5b5e139f000000000000000000000000000000000000000000000000000000007bffffffffffffffffffffffffffffffffffffffffffffffffffffffff1916827bffffffffffffffffffffffffffffffffffffffffffffffffffffffff1916145b806105ce57506105cd82611522565b5b9050919050565b6060600080546105e490612d2f565b80601f016020809104026020016040519081016040528092919081815260200182805461061090612d2f565b801561065d5780601f106106325761010080835404028352916020019161065d565b820191906000526020600020905b81548152906001019060200180831161064057829003601f168201915b5050505050905090565b60006106728261158c565b6004600083815260200190815260200160002060009054906101000a900473ffffffffffffffffffffffffffffffffffffffff169050919050565b6001600960008373ffffffffffffffffffffffffffffffffffffffff1673ffffffffffffffffffffffffffffffffffffffff16815260200190815260200160002060006101000a81548160ff02191690831515021790555050565b600061071382610d2d565b90508073ffffffffffffffffffffffffffffffffffffffff168373ffffffffffffffffffffffffffffffffffffffff1603610783576040517f08c379a000000000000000000000000000000000000000000000000000000000815260040161077a90612dd2565b60405180910390fd5b8073ffffffffffffffffffffffffffffffffffffffff166107a26115d7565b73ffffffffffffffffffffffffffffffffffffffff1614806107d157506107d0816107cb6115d7565b61140b565b5b610810576040517f08c379a000000000000000000000000000000000000000000000000000000000815260040161080790612e64565b60405180910390fd5b61081a83836115df565b505050565b6000600960008373ffffffffffffffffffffffffffffffffffffffff1673ffffffffffffffffffffffffffffffffffffffff16815260200190815260200160002060006101000a81548160ff02191690831515021790555050565b61088b6108856115d7565b82611698565b6108ca576040517f08c379a00000000000000000000000000000000000000000000000000000000081526004016108c190612ef6565b60405180910390fd5b6108d583838361172d565b505050565b60096020528060005260406000206000915054906101000a900460ff1681565b600860205280600052604060002060009150905080600001549080600101805461092390612d2f565b80601f016020809104026020016040519081016040528092919081815260200182805461094f90612d2f565b801561099c5780601f106109715761010080835404028352916020019161099c565b820191906000526020600020905b81548152906001019060200180831161097f57829003601f168201915b5050505050908060020160009054906101000a900473ffffffffffffffffffffffffffffffffffffffff16905083565b3373ffffffffffffffffffffffffffffffffffffffff166109ec83610d2d565b73ffffffffffffffffffffffffffffffffffffffff1614610a42576040517f08c379a0000000000000000000000000000000000000000000000000000000008152600401610a3990612f62565b60405180910390fd5b610a4d33828461172d565b806008600084815260200190815260200160002060020160006101000a81548173ffffffffffffffffffffffffffffffffffffffff021916908373ffffffffffffffffffffffffffffffffffffffff1602179055506007600083815260200190815260200160002060405180604001604052806040518060400160405280601581526020017f4f776e657273686970207472616e73666572726564000000000000000000000081525081526020014281525090806001815401808255809150506001900390600052602060002090600202016000909190919091506000820151816000019081610b3d919061312e565b506020820151816001015550507f16b85f49bf01212961345d3016c9a531894accf62eb7680f2045d79185cc0ec0823383604051610b7d93929190613200565b60405180910390a15050565b610ba4838383604051806020016040528060008152506111eb565b505050565b610bb282611a26565b610bf1576040517f08c379a0000000000000000000000000000000000000000000000000000000008152600401610be890613283565b60405180910390fd5b600960003373ffffffffffffffffffffffffffffffffffffffff1673ffffffffffffffffffffffffffffffffffffffff16815260200190815260200160002060009054906101000a900460ff16610c7d576040517f08c379a0000000000000000000000000000000000000000000000000000000008152600401610c74906132ef565b60405180910390fd5b6007600083815260200190815260200160002060405180604001604052808381526020014281525090806001815401808255809150506001900390600052602060002090600202016000909190919091506000820151816000019081610ce3919061312e565b506020820151816001015550507fa9f4189c91de2745d5b88e8442cdd5a26d95744e1798358d0c3c84b29372c4148282604051610d2192919061330f565b60405180910390a15050565b600080610d3983611a67565b9050600073ffffffffffffffffffffffffffffffffffffffff168173ffffffffffffffffffffffffffffffffffffffff1603610daa576040517f08c379a0000000000000000000000000000000000000000000000000000000008152600401610da19061338b565b60405180910390fd5b80915050919050565b60008073ffffffffffffffffffffffffffffffffffffffff168273ffffffffffffffffffffffffffffffffffffffff1603610e23576040517f08c379a0000000000000000000000000000000000000000000000000000000008152600401610e1a9061341d565b60405180910390fd5b600360008373ffffffffffffffffffffffffffffffffffffffff1673ffffffffffffffffffffffffffffffffffffffff168152602001908152602001600020549050919050565b610e72611aa4565b610e7c6000611b22565b565b610e888183611be8565b60405180606001604052808381526020016040518060400160405280601381526020017f436572746966696361746520637265617465640000000000000000000000000081525081526020018273ffffffffffffffffffffffffffffffffffffffff1681525060086000848152602001908152602001600020600082015181600001556020820151816001019081610f20919061312e565b5060408201518160020160006101000a81548173ffffffffffffffffffffffffffffffffffffffff021916908373ffffffffffffffffffffffffffffffffffffffff1602179055509050506007600083815260200190815260200160002060405180604001604052806040518060400160405280601381526020017f436572746966696361746520637265617465640000000000000000000000000081525081526020014281525090806001815401808255809150506001900390600052602060002090600202016000909190919091506000820151816000019081611006919061312e565b506020820151816001015550507f80bdfcdaede74333215307ad875875100c98a98a05106988605935d4062d5530828260405161104492919061343d565b60405180910390a15050565b6007602052816000526040600020818154811061106c57600080fd5b90600052602060002090600202016000915091505080600001805461109090612d2f565b80601f01602080910402602001604051908101604052809291908181526020018280546110bc90612d2f565b80156111095780601f106110de57610100808354040283529160200191611109565b820191906000526020600020905b8154815290600101906020018083116110ec57829003601f168201915b5050505050908060010154905082565b6000600660009054906101000a900473ffffffffffffffffffffffffffffffffffffffff16905090565b60606001805461115290612d2f565b80601f016020809104026020016040519081016040528092919081815260200182805461117e90612d2f565b80156111cb5780601f106111a0576101008083540402835291602001916111cb565b820191906000526020600020905b8154815290600101906020018083116111ae57829003601f168201915b5050505050905090565b6111e76111e06115d7565b8383611e05565b5050565b6111fc6111f66115d7565b83611698565b61123b576040517f08c379a000000000000000000000000000000000000000000000000000000000815260040161123290612ef6565b60405180910390fd5b61124784848484611f71565b50505050565b606061125882611a26565b611297576040517f08c379a000000000000000000000000000000000000000000000000000000000815260040161128e90613283565b60405180910390fd5b60076000838152602001908152602001600020805480602002602001604051908101604052809291908181526020016000905b8282101561139857838290600052602060002090600202016040518060400160405290816000820180546112fd90612d2f565b80601f016020809104026020016040519081016040528092919081815260200182805461132990612d2f565b80156113765780601f1061134b57610100808354040283529160200191611376565b820191906000526020600020905b81548152906001019060200180831161135957829003601f168201915b50505050508152602001600182015481525050815260200190600101906112ca565b505050509050919050565b60606113ae8261158c565b60006113b8611fcd565b905060008151116113d85760405180602001604052806000815250611403565b806113e28461200a565b6040516020016113f39291906134a2565b6040516020818303038152906040525b915050919050565b6000600560008473ffffffffffffffffffffffffffffffffffffffff1673ffffffffffffffffffffffffffffffffffffffff16815260200190815260200160002060008373ffffffffffffffffffffffffffffffffffffffff1673ffffffffffffffffffffffffffffffffffffffff16815260200190815260200160002060009054906101000a900460ff16905092915050565b6114a7611aa4565b600073ffffffffffffffffffffffffffffffffffffffff168173ffffffffffffffffffffffffffffffffffffffff1603611516576040517f08c379a000000000000000000000000000000000000000000000000000000000815260040161150d90613538565b60405180910390fd5b61151f81611b22565b50565b60007f01ffc9a7000000000000000000000000000000000000000000000000000000007bffffffffffffffffffffffffffffffffffffffffffffffffffffffff1916827bffffffffffffffffffffffffffffffffffffffffffffffffffffffff1916149050919050565b61159581611a26565b6115d4576040517f08c379a00000000000000000000000000000000000000000000000000000000081526004016115cb9061338b565b60405180910390fd5b50565b600033905090565b816004600083815260200190815260200160002060006101000a81548173ffffffffffffffffffffffffffffffffffffffff021916908373ffffffffffffffffffffffffffffffffffffffff160217905550808273ffffffffffffffffffffffffffffffffffffffff1661165283610d2d565b73ffffffffffffffffffffffffffffffffffffffff167f8c5be1e5ebec7d5bd14f71427d1e84f3dd0314c0f7b2291e5b200ac8c7c3b92560405160405180910390a45050565b6000806116a483610d2d565b90508073ffffffffffffffffffffffffffffffffffffffff168473ffffffffffffffffffffffffffffffffffffffff1614806116e657506116e5818561140b565b5b8061172457508373ffffffffffffffffffffffffffffffffffffffff1661170c84610667565b73ffffffffffffffffffffffffffffffffffffffff16145b91505092915050565b8273ffffffffffffffffffffffffffffffffffffffff1661174d82610d2d565b73ffffffffffffffffffffffffffffffffffffffff16146117a3576040517f08c379a000000000000000000000000000000000000000000000000000000000815260040161179a906135ca565b60405180910390fd5b600073ffffffffffffffffffffffffffffffffffffffff168273ffffffffffffffffffffffffffffffffffffffff1603611812576040517f08c379a00000000000000000000000000000000000000000000000000000000081526004016118099061365c565b60405180910390fd5b61181f83838360016120d8565b8273ffffffffffffffffffffffffffffffffffffffff1661183f82610d2d565b73ffffffffffffffffffffffffffffffffffffffff1614611895576040517f08c379a000000000000000000000000000000000000000000000000000000000815260040161188c906135ca565b60405180910390fd5b6004600082815260200190815260200160002060006101000a81549073ffffffffffffffffffffffffffffffffffffffff02191690556001600360008573ffffffffffffffffffffffffffffffffffffffff1673ffffffffffffffffffffffffffffffffffffffff168152602001908152602001600020600082825403925050819055506001600360008473ffffffffffffffffffffffffffffffffffffffff1673ffffffffffffffffffffffffffffffffffffffff16815260200190815260200160002060008282540192505081905550816002600083815260200190815260200160002060006101000a81548173ffffffffffffffffffffffffffffffffffffffff021916908373ffffffffffffffffffffffffffffffffffffffff160217905550808273ffffffffffffffffffffffffffffffffffffffff168473ffffffffffffffffffffffffffffffffffffffff167fddf252ad1be2c89b69c2b068fc378daa952ba7f163c4a11628f55a4df523b3ef60405160405180910390a4611a2183838360016120de565b505050565b60008073ffffffffffffffffffffffffffffffffffffffff16611a4883611a67565b73ffffffffffffffffffffffffffffffffffffffff1614159050919050565b60006002600083815260200190815260200160002060009054906101000a900473ffffffffffffffffffffffffffffffffffffffff169050919050565b611aac6115d7565b73ffffffffffffffffffffffffffffffffffffffff16611aca611119565b73ffffffffffffffffffffffffffffffffffffffff1614611b20576040517f08c379a0000000000000000000000000000000000000000000000000000000008152600401611b17906136c8565b60405180910390fd5b565b6000600660009054906101000a900473ffffffffffffffffffffffffffffffffffffffff16905081600660006101000a81548173ffffffffffffffffffffffffffffffffffffffff021916908373ffffffffffffffffffffffffffffffffffffffff1602179055508173ffffffffffffffffffffffffffffffffffffffff168173ffffffffffffffffffffffffffffffffffffffff167f8be0079c531659141344cd1fd0a4f28419497f9722a3daafe3b4186f6b6457e060405160405180910390a35050565b600073ffffffffffffffffffffffffffffffffffffffff168273ffffffffffffffffffffffffffffffffffffffff1603611c57576040517f08c379a0000000000000000000000000000000000000000000000000000000008152600401611c4e90613734565b60405180910390fd5b611c6081611a26565b15611ca0576040517f08c379a0000000000000000000000000000000000000000000000000000000008152600401611c97906137a0565b60405180910390fd5b611cae6000838360016120d8565b611cb781611a26565b15611cf7576040517f08c379a0000000000000000000000000000000000000000000000000000000008152600401611cee906137a0565b60405180910390fd5b6001600360008473ffffffffffffffffffffffffffffffffffffffff1673ffffffffffffffffffffffffffffffffffffffff16815260200190815260200160002060008282540192505081905550816002600083815260200190815260200160002060006101000a81548173ffffffffffffffffffffffffffffffffffffffff021916908373ffffffffffffffffffffffffffffffffffffffff160217905550808273ffffffffffffffffffffffffffffffffffffffff16600073ffffffffffffffffffffffffffffffffffffffff167fddf252ad1be2c89b69c2b068fc378daa952ba7f163c4a11628f55a4df523b3ef60405160405180910390a4611e016000838360016120de565b5050565b8173ffffffffffffffffffffffffffffffffffffffff168373ffffffffffffffffffffffffffffffffffffffff1603611e73576040517f08c379a0000000000000000000000000000000000000000000000000000000008152600401611e6a9061380c565b60405180910390fd5b80600560008573ffffffffffffffffffffffffffffffffffffffff1673ffffffffffffffffffffffffffffffffffffffff16815260200190815260200160002060008473ffffffffffffffffffffffffffffffffffffffff1673ffffffffffffffffffffffffffffffffffffffff16815260200190815260200160002060006101000a81548160ff0219169083151502179055508173ffffffffffffffffffffffffffffffffffffffff168373ffffffffffffffffffffffffffffffffffffffff167f17307eab39ab6107e8899845ad3d59bd9653f200f220920489ca2b5937696c3183604051611f649190612495565b60405180910390a3505050565b611f7c84848461172d565b611f88848484846120e4565b611fc7576040517f08c379a0000000000000000000000000000000000000000000000000000000008152600401611fbe9061389e565b60405180910390fd5b50505050565b60606040518060400160405280601d81526020017f68747470733a2f2f6578616d706c652e636f6d2f6d657461646174612f000000815250905090565b6060600060016120198461226b565b01905060008167ffffffffffffffff811115612038576120376127a4565b5b6040519080825280601f01601f19166020018201604052801561206a5781602001600182028036833780820191505090505b509050600082602001820190505b6001156120cd578080600190039150507f3031323334353637383961626364656600000000000000000000000000000000600a86061a8153600a85816120c1576120c06138be565b5b04945060008503612078575b819350505050919050565b50505050565b50505050565b60006121058473ffffffffffffffffffffffffffffffffffffffff166123be565b1561225e578373ffffffffffffffffffffffffffffffffffffffff1663150b7a0261212e6115d7565b8786866040518563ffffffff1660e01b81526004016121509493929190613942565b6020604051808303816000875af192505050801561218c57506040513d601f19601f8201168201806040525081019061218991906139a3565b60015b61220e573d80600081146121bc576040519150601f19603f3d011682016040523d82523d6000602084013e6121c1565b606091505b506000815103612206576040517f08c379a00000000000000000000000000000000000000000000000000000000081526004016121fd9061389e565b60405180910390fd5b805181602001fd5b63150b7a0260e01b7bffffffffffffffffffffffffffffffffffffffffffffffffffffffff1916817bffffffffffffffffffffffffffffffffffffffffffffffffffffffff191614915050612263565b600190505b949350505050565b600080600090507a184f03e93ff9f4daa797ed6e38ed64bf6a1f01000000000000000083106122c9577a184f03e93ff9f4daa797ed6e38ed64bf6a1f01000000000000000083816122bf576122be6138be565b5b0492506040810190505b6d04ee2d6d415b85acef81000000008310612306576d04ee2d6d415b85acef810000000083816122fc576122fb6138be565b5b0492506020810190505b662386f26fc10000831061233557662386f26fc10000838161232b5761232a6138be565b5b0492506010810190505b6305f5e100831061235e576305f5e1008381612354576123536138be565b5b0492506008810190505b6127108310612383576127108381612379576123786138be565b5b0492506004810190505b606483106123a6576064838161239c5761239b6138be565b5b0492506002810190505b600a83106123b5576001810190505b80915050919050565b6000808273ffffffffffffffffffffffffffffffffffffffff163b119050919050565b6000604051905090565b600080fd5b600080fd5b60007fffffffff0000000000000000000000000000000000000000000000000000000082169050919050565b61242a816123f5565b811461243557600080fd5b50565b60008135905061244781612421565b92915050565b600060208284031215612463576124626123eb565b5b600061247184828501612438565b91505092915050565b60008115159050919050565b61248f8161247a565b82525050565b60006020820190506124aa6000830184612486565b92915050565b600081519050919050565b600082825260208201905092915050565b60005b838110156124ea5780820151818401526020810190506124cf565b60008484015250505050565b6000601f19601f8301169050919050565b6000612512826124b0565b61251c81856124bb565b935061252c8185602086016124cc565b612535816124f6565b840191505092915050565b6000602082019050818103600083015261255a8184612507565b905092915050565b6000819050919050565b61257581612562565b811461258057600080fd5b50565b6000813590506125928161256c565b92915050565b6000602082840312156125ae576125ad6123eb565b5b60006125bc84828501612583565b91505092915050565b600073ffffffffffffffffffffffffffffffffffffffff82169050919050565b60006125f0826125c5565b9050919050565b612600816125e5565b82525050565b600060208201905061261b60008301846125f7565b92915050565b61262a816125e5565b811461263557600080fd5b50565b60008135905061264781612621565b92915050565b600060208284031215612663576126626123eb565b5b600061267184828501612638565b91505092915050565b60008060408385031215612691576126906123eb565b5b600061269f85828601612638565b92505060206126b085828601612583565b9150509250929050565b6000806000606084860312156126d3576126d26123eb565b5b60006126e186828701612638565b93505060206126f286828701612638565b925050604061270386828701612583565b9150509250925092565b61271681612562565b82525050565b6000606082019050612731600083018661270d565b81810360208301526127438185612507565b905061275260408301846125f7565b949350505050565b60008060408385031215612771576127706123eb565b5b600061277f85828601612583565b925050602061279085828601612638565b9150509250929050565b600080fd5b600080fd5b7f4e487b7100000000000000000000000000000000000000000000000000000000600052604160045260246000fd5b6127dc826124f6565b810181811067ffffffffffffffff821117156127fb576127fa6127a4565b5b80604052505050565b600061280e6123e1565b905061281a82826127d3565b919050565b600067ffffffffffffffff82111561283a576128396127a4565b5b612843826124f6565b9050602081019050919050565b82818337600083830152505050565b600061287261286d8461281f565b612804565b90508281526020810184848401111561288e5761288d61279f565b5b612899848285612850565b509392505050565b600082601f8301126128b6576128b561279a565b5b81356128c684826020860161285f565b91505092915050565b600080604083850312156128e6576128e56123eb565b5b60006128f485828601612583565b925050602083013567ffffffffffffffff811115612915576129146123f0565b5b612921858286016128a1565b9150509250929050565b6000602082019050612940600083018461270d565b92915050565b6000806040838503121561295d5761295c6123eb565b5b600061296b85828601612583565b925050602061297c85828601612583565b9150509250929050565b600060408201905081810360008301526129a08185612507565b90506129af602083018461270d565b9392505050565b6129bf8161247a565b81146129ca57600080fd5b50565b6000813590506129dc816129b6565b92915050565b600080604083850312156129f9576129f86123eb565b5b6000612a0785828601612638565b9250506020612a18858286016129cd565b9150509250929050565b600067ffffffffffffffff821115612a3d57612a3c6127a4565b5b612a46826124f6565b9050602081019050919050565b6000612a66612a6184612a22565b612804565b905082815260208101848484011115612a8257612a8161279f565b5b612a8d848285612850565b509392505050565b600082601f830112612aaa57612aa961279a565b5b8135612aba848260208601612a53565b91505092915050565b60008060008060808587031215612add57612adc6123eb565b5b6000612aeb87828801612638565b9450506020612afc87828801612638565b9350506040612b0d87828801612583565b925050606085013567ffffffffffffffff811115612b2e57612b2d6123f0565b5b612b3a87828801612a95565b91505092959194509250565b600081519050919050565b600082825260208201905092915050565b6000819050602082019050919050565b600082825260208201905092915050565b6000612b8e826124b0565b612b988185612b72565b9350612ba88185602086016124cc565b612bb1816124f6565b840191505092915050565b612bc581612562565b82525050565b60006040830160008301518482036000860152612be88282612b83565b9150506020830151612bfd6020860182612bbc565b508091505092915050565b6000612c148383612bcb565b905092915050565b6000602082019050919050565b6000612c3482612b46565b612c3e8185612b51565b935083602082028501612c5085612b62565b8060005b85811015612c8c5784840389528151612c6d8582612c08565b9450612c7883612c1c565b925060208a01995050600181019050612c54565b50829750879550505050505092915050565b60006020820190508181036000830152612cb88184612c29565b905092915050565b60008060408385031215612cd757612cd66123eb565b5b6000612ce585828601612638565b9250506020612cf685828601612638565b9150509250929050565b7f4e487b7100000000000000000000000000000000000000000000000000000000600052602260045260246000fd5b60006002820490506001821680612d4757607f821691505b602082108103612d5a57612d59612d00565b5b50919050565b7f4552433732313a20617070726f76616c20746f2063757272656e74206f776e6560008201527f7200000000000000000000000000000000000000000000000000000000000000602082015250565b6000612dbc6021836124bb565b9150612dc782612d60565b604082019050919050565b60006020820190508181036000830152612deb81612daf565b9050919050565b7f4552433732313a20617070726f76652063616c6c6572206973206e6f7420746f60008201527f6b656e206f776e6572206f7220617070726f76656420666f7220616c6c000000602082015250565b6000612e4e603d836124bb565b9150612e5982612df2565b604082019050919050565b60006020820190508181036000830152612e7d81612e41565b9050919050565b7f4552433732313a2063616c6c6572206973206e6f7420746f6b656e206f776e6560008201527f72206f7220617070726f76656400000000000000000000000000000000000000602082015250565b6000612ee0602d836124bb565b9150612eeb82612e84565b604082019050919050565b60006020820190508181036000830152612f0f81612ed3565b9050919050565b7f4e6f7420746865206f776e657221000000000000000000000000000000000000600082015250565b6000612f4c600e836124bb565b9150612f5782612f16565b602082019050919050565b60006020820190508181036000830152612f7b81612f3f565b9050919050565b60008190508160005260206000209050919050565b60006020601f8301049050919050565b600082821b905092915050565b600060088302612fe47fffffffffffffffffffffffffffffffffffffffffffffffffffffffffffffffff82612fa7565b612fee8683612fa7565b95508019841693508086168417925050509392505050565b6000819050919050565b600061302b61302661302184612562565b613006565b612562565b9050919050565b6000819050919050565b61304583613010565b61305961305182613032565b848454612fb4565b825550505050565b600090565b61306e613061565b61307981848461303c565b505050565b5b8181101561309d57613092600082613066565b60018101905061307f565b5050565b601f8211156130e2576130b381612f82565b6130bc84612f97565b810160208510156130cb578190505b6130df6130d785612f97565b83018261307e565b50505b505050565b600082821c905092915050565b6000613105600019846008026130e7565b1980831691505092915050565b600061311e83836130f4565b9150826002028217905092915050565b613137826124b0565b67ffffffffffffffff8111156131505761314f6127a4565b5b61315a8254612d2f565b6131658282856130a1565b600060209050601f8311600181146131985760008415613186578287015190505b6131908582613112565b8655506131f8565b601f1984166131a686612f82565b60005b828110156131ce578489015182556001820191506020850194506020810190506131a9565b868310156131eb57848901516131e7601f8916826130f4565b8355505b6001600288020188555050505b505050505050565b6000606082019050613215600083018661270d565b61322260208301856125f7565b61322f60408301846125f7565b949350505050565b7f546f6b656e20646f6573206e6f74206578697374000000000000000000000000600082015250565b600061326d6014836124bb565b915061327882613237565b602082019050919050565b6000602082019050818103600083015261329c81613260565b9050919050565b7f4e6f7420617574686f72697a6564000000000000000000000000000000000000600082015250565b60006132d9600e836124bb565b91506132e4826132a3565b602082019050919050565b60006020820190508181036000830152613308816132cc565b9050919050565b6000604082019050613324600083018561270d565b81810360208301526133368184612507565b90509392505050565b7f4552433732313a20696e76616c696420746f6b656e2049440000000000000000600082015250565b60006133756018836124bb565b91506133808261333f565b602082019050919050565b600060208201905081810360008301526133a481613368565b9050919050565b7f4552433732313a2061646472657373207a65726f206973206e6f74206120766160008201527f6c6964206f776e65720000000000000000000000000000000000000000000000602082015250565b60006134076029836124bb565b9150613412826133ab565b604082019050919050565b60006020820190508181036000830152613436816133fa565b9050919050565b6000604082019050613452600083018561270d565b61345f60208301846125f7565b9392505050565b600081905092915050565b600061347c826124b0565b6134868185613466565b93506134968185602086016124cc565b80840191505092915050565b60006134ae8285613471565b91506134ba8284613471565b91508190509392505050565b7f4f776e61626c653a206e6577206f776e657220697320746865207a65726f206160008201527f6464726573730000000000000000000000000000000000000000000000000000602082015250565b60006135226026836124bb565b915061352d826134c6565b604082019050919050565b6000602082019050818103600083015261355181613515565b9050919050565b7f4552433732313a207472616e736665722066726f6d20696e636f72726563742060008201527f6f776e6572000000000000000000000000000000000000000000000000000000602082015250565b60006135b46025836124bb565b91506135bf82613558565b604082019050919050565b600060208201905081810360008301526135e3816135a7565b9050919050565b7f4552433732313a207472616e7366657220746f20746865207a65726f2061646460008201527f7265737300000000000000000000000000000000000000000000000000000000602082015250565b60006136466024836124bb565b9150613651826135ea565b604082019050919050565b6000602082019050818103600083015261367581613639565b9050919050565b7f4f776e61626c653a2063616c6c6572206973206e6f7420746865206f776e6572600082015250565b60006136b26020836124bb565b91506136bd8261367c565b602082019050919050565b600060208201905081810360008301526136e1816136a5565b9050919050565b7f4552433732313a206d696e7420746f20746865207a65726f2061646472657373600082015250565b600061371e6020836124bb565b9150613729826136e8565b602082019050919050565b6000602082019050818103600083015261374d81613711565b9050919050565b7f4552433732313a20746f6b656e20616c7265616479206d696e74656400000000600082015250565b600061378a601c836124bb565b915061379582613754565b602082019050919050565b600060208201905081810360008301526137b98161377d565b9050919050565b7f4552433732313a20617070726f766520746f2063616c6c657200000000000000600082015250565b60006137f66019836124bb565b9150613801826137c0565b602082019050919050565b60006020820190508181036000830152613825816137e9565b9050919050565b7f4552433732313a207472616e7366657220746f206e6f6e20455243373231526560008201527f63656976657220696d706c656d656e7465720000000000000000000000000000602082015250565b60006138886032836124bb565b91506138938261382c565b604082019050919050565b600060208201905081810360008301526138b78161387b565b9050919050565b7f4e487b7100000000000000000000000000000000000000000000000000000000600052601260045260246000fd5b600081519050919050565b600082825260208201905092915050565b6000613914826138ed565b61391e81856138f8565b935061392e8185602086016124cc565b613937816124f6565b840191505092915050565b600060808201905061395760008301876125f7565b61396460208301866125f7565b613971604083018561270d565b81810360608301526139838184613909565b905095945050505050565b60008151905061399d81612421565b92915050565b6000602082840312156139b9576139b86123eb565b5b60006139c78482850161398e565b9150509291505056fea264697066735822122082c3883c69535e1f7f5fec556d935d8834ecf8d07685f3ccd3bb582f5972023164736f6c63430008140033",
  "linkReferences": {},
  "deployedLinkReferences": {}
}