{
  "_format": "hh-sol-artifact-1",
  "contractName": "JewelryCertificate",
  "sourceName": "contracts/JewelryCertificate.sol",
  "abi": [
    {
      "inputs": [],
      "stateMutability": "nonpayable",
      "type": "constructor"
    },
    {
      "anonymous": false,
      "inputs": [
        {
          "indexed": true,
          "internalType": "address",
          "name": "owner",
          "type": "address"
        },
        {
          "indexed": true,
          "internalType": "address",
          "name": "approved",
          "type": "address"
        },
        {
          "indexed": true,
          "internalType": "uint256",
          "name": "tokenId",
          "type": "uint256"
        }
      ],
      "name": "Approval",
      "type": "event"
    },
    {
      "anonymous": false,
      "inputs": [
        {
          "indexed": true,
          "internalType": "address",
          "name": "owner",
          "type": "address"
        },
        {
          "indexed": true,
          "internalType": "address",
          "name": "operator",
          "type": "address"
        },
        {
          "indexed": false,
          "internalType": "bool",
          "name": "approved",
          "type": "bool"
        }
      ],
      "name": "ApprovalForAll",
      "type": "event"
    },
    {
      "anonymous": false,
      "inputs": [
        {
          "indexed": true,
          "internalType": "address",
          "name": "from",
          "type": "address"
        },
        {
          "indexed": true,
          "internalType": "address",
          "name": "to",
          "type": "address"
        },
        {
          "indexed": true,
          "internalType": "uint256",
          "name": "tokenId",
          "type": "uint256"
        }
      ],
      "name": "Transfer",
      "type": "event"
    },
    {
      "inputs": [
        {
          "internalType": "address",
          "name": "to",
          "type": "address"
        },
        {
          "internalType": "uint256",
          "name": "tokenId",
          "type": "uint256"
        }
      ],
      "name": "approve",
      "outputs": [],
      "stateMutability": "nonpayable",
      "type": "function"
    },
    {
      "inputs": [
        {
          "internalType": "address",
          "name": "owner",
          "type": "address"
        }
      ],
      "name": "balanceOf",
      "outputs": [
        {
          "internalType": "uint256",
          "name": "",
          "type": "uint256"
        }
      ],
      "stateMutability": "view",
      "type": "function"
    },
    {
      "inputs": [
        {
          "internalType": "uint256",
          "name": "tokenId",
          "type": "uint256"
        },
        {
          "internalType": "address",
          "name": "owner",
          "type": "address"
        }
      ],
      "name": "createCertificate",
      "outputs": [],
      "stateMutability": "nonpayable",
      "type": "function"
    },
    {
      "inputs": [
        {
          "internalType": "uint256",
          "name": "",
          "type": "uint256"
        },
        {
          "internalType": "uint256",
          "name": "",
          "type": "uint256"
        }
      ],
      "name": "events",
      "outputs": [
        {
          "internalType": "string",
          "name": "description",
          "type": "string"
        },
        {
          "internalType": "uint256",
          "name": "timestamp",
          "type": "uint256"
        }
      ],
      "stateMutability": "view",
      "type": "function"
    },
    {
      "inputs": [
        {
          "internalType": "uint256",
          "name": "tokenId",
          "type": "uint256"
        }
      ],
      "name": "getApproved",
      "outputs": [
        {
          "internalType": "address",
          "name": "",
          "type": "address"
        }
      ],
      "stateMutability": "view",
      "type": "function"
    },
    {
      "inputs": [
        {
          "internalType": "address",
          "name": "owner",
          "type": "address"
        },
        {
          "internalType": "address",
          "name": "operator",
          "type": "address"
        }
      ],
      "name": "isApprovedForAll",
      "outputs": [
        {
          "internalType": "bool",
          "name": "",
          "type": "bool"
        }
      ],
      "stateMutability": "view",
      "type": "function"
    },
    {
      "inputs": [
        {
          "internalType": "uint256",
          "name": "tokenId",
          "type": "uint256"
        },
        {
          "internalType": "string",
          "name": "description",
          "type": "string"
        }
      ],
      "name": "logEvent",
      "outputs": [],
      "stateMutability": "nonpayable",
      "type": "function"
    },
    {
      "inputs": [],
      "name": "name",
      "outputs": [
        {
          "internalType": "string",
          "name": "",
          "type": "string"
        }
      ],
      "stateMutability": "view",
      "type": "function"
    },
    {
      "inputs": [
        {
          "internalType": "uint256",
          "name": "tokenId",
          "type": "uint256"
        }
      ],
      "name": "ownerOf",
      "outputs": [
        {
          "internalType": "address",
          "name": "",
          "type": "address"
        }
      ],
      "stateMutability": "view",
      "type": "function"
    },
    {
      "inputs": [
        {
          "internalType": "address",
          "name": "from",
          "type": "address"
        },
        {
          "internalType": "address",
          "name": "to",
          "type": "address"
        },
        {
          "internalType": "uint256",
          "name": "tokenId",
          "type": "uint256"
        }
      ],
      "name": "safeTransferFrom",
      "outputs": [],
      "stateMutability": "nonpayable",
      "type": "function"
    },
    {
      "inputs": [
        {
          "internalType": "address",
          "name": "from",
          "type": "address"
        },
        {
          "internalType": "address",
          "name": "to",
          "type": "address"
        },
        {
          "internalType": "uint256",
          "name": "tokenId",
          "type": "uint256"
        },
        {
          "internalType": "bytes",
          "name": "data",
          "type": "bytes"
        }
      ],
      "name": "safeTransferFrom",
      "outputs": [],
      "stateMutability": "nonpayable",
      "type": "function"
    },
    {
      "inputs": [
        {
          "internalType": "address",
          "name": "operator",
          "type": "address"
        },
        {
          "internalType": "bool",
          "name": "approved",
          "type": "bool"
        }
      ],
      "name": "setApprovalForAll",
      "outputs": [],
      "stateMutability": "nonpayable",
      "type": "function"
    },
    {
      "inputs": [
        {
          "internalType": "bytes4",
          "name": "interfaceId",
          "type": "bytes4"
        }
      ],
      "name": "supportsInterface",
      "outputs": [
        {
          "internalType": "bool",
          "name": "",
          "type": "bool"
        }
      ],
      "stateMutability": "view",
      "type": "function"
    },
    {
      "inputs": [],
      "name": "symbol",
      "outputs": [
        {
          "internalType": "string",
          "name": "",
          "type": "string"
        }
      ],
      "stateMutability": "view",
      "type": "function"
    },
    {
      "inputs": [
        {
          "internalType": "uint256",
          "name": "tokenId",
          "type": "uint256"
        }
      ],
      "name": "tokenURI",
      "outputs": [
        {
          "internalType": "string",
          "name": "",
          "type": "string"
        }
      ],
      "stateMutability": "view",
      "type": "function"
    },
    {
      "inputs": [
        {
          "internalType": "address",
          "name": "from",
          "type": "address"
        },
        {
          "internalType": "address",
          "name": "to",
          "type": "address"
        },
        {
          "internalType": "uint256",
          "name": "tokenId",
          "type": "uint256"
        }
      ],
      "name": "transferFrom",
      "outputs": [],
      "stateMutability": "nonpayable",
      "type": "function"
    }
  ],
  "bytecode": "0x60806040523480156200001157600080fd5b50604051806040016040528060128152602001714a6577656c7279436572746966696361746560701b815250604051806040016040528060038152602001621295d360ea1b81525081600090816200006a919062000127565b50600162000079828262000127565b505050620001f3565b634e487b7160e01b600052604160045260246000fd5b600181811c90821680620000ad57607f821691505b602082108103620000ce57634e487b7160e01b600052602260045260246000fd5b50919050565b601f8211156200012257600081815260208120601f850160051c81016020861015620000fd5750805b601f850160051c820191505b818110156200011e5782815560010162000109565b5050505b505050565b81516001600160401b0381111562000143576200014362000082565b6200015b8162000154845462000098565b84620000d4565b602080601f8311600181146200019357600084156200017a5750858301515b600019600386901b1c1916600185901b1785556200011e565b600085815260208120601f198616915b82811015620001c457888601518255948401946001909101908401620001a3565b5085821015620001e35787850151600019600388901b60f8161c191681555b5050505050600190811b01905550565b61166080620002036000396000f3fe608060405234801561001057600080fd5b50600436106101005760003560e01c806370a0823111610097578063a22cb46511610066578063a22cb4651461022b578063b88d4fde1461023e578063c87b56dd14610251578063e985e9c51461026457600080fd5b806370a08231146101ce57806383e6a4ab146101ef5780638a24bcb71461020257806395d89b411461022357600080fd5b806323b872dd116100d357806323b872dd1461018257806342842e0e146101955780634359b7ef146101a85780636352211e146101bb57600080fd5b806301ffc9a71461010557806306fdde031461012d578063081812fc14610142578063095ea7b31461016d575b600080fd5b610118610113366004611006565b6102a0565b60405190151581526020015b60405180910390f35b6101356102f2565b6040516101249190611073565b610155610150366004611086565b610384565b6040516001600160a01b039091168152602001610124565b61018061017b3660046110bb565b6103ab565b005b6101806101903660046110e5565b6104c5565b6101806101a33660046110e5565b6104f6565b6101806101b63660046111ad565b610511565b6101556101c9366004611086565b6105c2565b6101e16101dc366004611208565b610622565b604051908152602001610124565b6101806101fd366004611223565b6106a8565b61021561021036600461124f565b6106b6565b604051610124929190611271565b61013561077f565b610180610239366004611293565b61078e565b61018061024c3660046112cf565b610799565b61013561025f366004611086565b6107d1565b61011861027236600461134b565b6001600160a01b03918216600090815260056020908152604080832093909416825291909152205460ff1690565b60006001600160e01b031982166380ac58cd60e01b14806102d157506001600160e01b03198216635b5e139f60e01b145b806102ec57506301ffc9a760e01b6001600160e01b03198316145b92915050565b60606000805461030190611375565b80601f016020809104026020016040519081016040528092919081815260200182805461032d90611375565b801561037a5780601f1061034f5761010080835404028352916020019161037a565b820191906000526020600020905b81548152906001019060200180831161035d57829003601f168201915b5050505050905090565b600061038f82610845565b506000908152600460205260409020546001600160a01b031690565b60006103b6826105c2565b9050806001600160a01b0316836001600160a01b0316036104285760405162461bcd60e51b815260206004820152602160248201527f4552433732313a20617070726f76616c20746f2063757272656e74206f776e656044820152603960f91b60648201526084015b60405180910390fd5b336001600160a01b038216148061044457506104448133610272565b6104b65760405162461bcd60e51b815260206004820152603d60248201527f4552433732313a20617070726f76652063616c6c6572206973206e6f7420746f60448201527f6b656e206f776e6572206f7220617070726f76656420666f7220616c6c000000606482015260840161041f565b6104c083836108a7565b505050565b6104cf3382610915565b6104eb5760405162461bcd60e51b815260040161041f906113af565b6104c0838383610994565b6104c083838360405180602001604052806000815250610799565b6000828152600260205260409020546001600160a01b031661056c5760405162461bcd60e51b8152602060048201526014602482015273151bdad95b88191bd95cc81b9bdd08195e1a5cdd60621b604482015260640161041f565b60008281526006602090815260408083208151808301909252848252428284015280546001810182559084529190922082516002909202019081906105b1908261144a565b506020820151816001015550505050565b6000818152600260205260408120546001600160a01b0316806102ec5760405162461bcd60e51b8152602060048201526018602482015277115490cdcc8c4e881a5b9d985b1a59081d1bdad95b88125160421b604482015260640161041f565b60006001600160a01b03821661068c5760405162461bcd60e51b815260206004820152602960248201527f4552433732313a2061646472657373207a65726f206973206e6f7420612076616044820152683634b21037bbb732b960b91b606482015260840161041f565b506001600160a01b031660009081526003602052604090205490565b6106b28183610af8565b5050565b600660205281600052604060002081815481106106d257600080fd5b9060005260206000209060020201600091509150508060000180546106f690611375565b80601f016020809104026020016040519081016040528092919081815260200182805461072290611375565b801561076f5780601f106107445761010080835404028352916020019161076f565b820191906000526020600020905b81548152906001019060200180831161075257829003601f168201915b5050505050908060010154905082565b60606001805461030190611375565b6106b2338383610c83565b6107a33383610915565b6107bf5760405162461bcd60e51b815260040161041f906113af565b6107cb84848484610d51565b50505050565b60606107dc82610845565b60006107f360408051602081019091526000815290565b90506000815111610813576040518060200160405280600081525061083e565b8061081d84610d84565b60405160200161082e92919061150a565b6040516020818303038152906040525b9392505050565b6000818152600260205260409020546001600160a01b03166108a45760405162461bcd60e51b8152602060048201526018602482015277115490cdcc8c4e881a5b9d985b1a59081d1bdad95b88125160421b604482015260640161041f565b50565b600081815260046020526040902080546001600160a01b0319166001600160a01b03841690811790915581906108dc826105c2565b6001600160a01b03167f8c5be1e5ebec7d5bd14f71427d1e84f3dd0314c0f7b2291e5b200ac8c7c3b92560405160405180910390a45050565b600080610921836105c2565b9050806001600160a01b0316846001600160a01b0316148061096857506001600160a01b0380821660009081526005602090815260408083209388168352929052205460ff165b8061098c5750836001600160a01b031661098184610384565b6001600160a01b0316145b949350505050565b826001600160a01b03166109a7826105c2565b6001600160a01b0316146109cd5760405162461bcd60e51b815260040161041f90611539565b6001600160a01b038216610a2f5760405162461bcd60e51b8152602060048201526024808201527f4552433732313a207472616e7366657220746f20746865207a65726f206164646044820152637265737360e01b606482015260840161041f565b826001600160a01b0316610a42826105c2565b6001600160a01b031614610a685760405162461bcd60e51b815260040161041f90611539565b600081815260046020908152604080832080546001600160a01b03199081169091556001600160a01b0387811680865260038552838620805460001901905590871680865283862080546001019055868652600290945282852080549092168417909155905184937fddf252ad1be2c89b69c2b068fc378daa952ba7f163c4a11628f55a4df523b3ef91a4505050565b6001600160a01b038216610b4e5760405162461bcd60e51b815260206004820181905260248201527f4552433732313a206d696e7420746f20746865207a65726f2061646472657373604482015260640161041f565b6000818152600260205260409020546001600160a01b031615610bb35760405162461bcd60e51b815260206004820152601c60248201527f4552433732313a20746f6b656e20616c7265616479206d696e74656400000000604482015260640161041f565b6000818152600260205260409020546001600160a01b031615610c185760405162461bcd60e51b815260206004820152601c60248201527f4552433732313a20746f6b656e20616c7265616479206d696e74656400000000604482015260640161041f565b6001600160a01b038216600081815260036020908152604080832080546001019055848352600290915280822080546001600160a01b0319168417905551839291907fddf252ad1be2c89b69c2b068fc378daa952ba7f163c4a11628f55a4df523b3ef908290a45050565b816001600160a01b0316836001600160a01b031603610ce45760405162461bcd60e51b815260206004820152601960248201527f4552433732313a20617070726f766520746f2063616c6c657200000000000000604482015260640161041f565b6001600160a01b03838116600081815260056020908152604080832094871680845294825291829020805460ff191686151590811790915591519182527f17307eab39ab6107e8899845ad3d59bd9653f200f220920489ca2b5937696c31910160405180910390a3505050565b610d5c848484610994565b610d6884848484610e17565b6107cb5760405162461bcd60e51b815260040161041f9061157e565b60606000610d9183610f18565b600101905060008167ffffffffffffffff811115610db157610db1611121565b6040519080825280601f01601f191660200182016040528015610ddb576020820181803683370190505b5090508181016020015b600019016f181899199a1a9b1b9c1cb0b131b232b360811b600a86061a8153600a8504945084610de557509392505050565b60006001600160a01b0384163b15610f0d57604051630a85bd0160e11b81526001600160a01b0385169063150b7a0290610e5b9033908990889088906004016115d0565b6020604051808303816000875af1925050508015610e96575060408051601f3d908101601f19168201909252610e939181019061160d565b60015b610ef3573d808015610ec4576040519150601f19603f3d011682016040523d82523d6000602084013e610ec9565b606091505b508051600003610eeb5760405162461bcd60e51b815260040161041f9061157e565b805181602001fd5b6001600160e01b031916630a85bd0160e11b14905061098c565b506001949350505050565b60008072184f03e93ff9f4daa797ed6e38ed64bf6a1f0160401b8310610f575772184f03e93ff9f4daa797ed6e38ed64bf6a1f0160401b830492506040015b6d04ee2d6d415b85acef81000000008310610f83576d04ee2d6d415b85acef8100000000830492506020015b662386f26fc100008310610fa157662386f26fc10000830492506010015b6305f5e1008310610fb9576305f5e100830492506008015b6127108310610fcd57612710830492506004015b60648310610fdf576064830492506002015b600a83106102ec5760010192915050565b6001600160e01b0319811681146108a457600080fd5b60006020828403121561101857600080fd5b813561083e81610ff0565b60005b8381101561103e578181015183820152602001611026565b50506000910152565b6000815180845261105f816020860160208601611023565b601f01601f19169290920160200192915050565b60208152600061083e6020830184611047565b60006020828403121561109857600080fd5b5035919050565b80356001600160a01b03811681146110b657600080fd5b919050565b600080604083850312156110ce57600080fd5b6110d78361109f565b946020939093013593505050565b6000806000606084860312156110fa57600080fd5b6111038461109f565b92506111116020850161109f565b9150604084013590509250925092565b634e487b7160e01b600052604160045260246000fd5b600067ffffffffffffffff8084111561115257611152611121565b604051601f8501601f19908116603f0116810190828211818310171561117a5761117a611121565b8160405280935085815286868601111561119357600080fd5b858560208301376000602087830101525050509392505050565b600080604083850312156111c057600080fd5b82359150602083013567ffffffffffffffff8111156111de57600080fd5b8301601f810185136111ef57600080fd5b6111fe85823560208401611137565b9150509250929050565b60006020828403121561121a57600080fd5b61083e8261109f565b6000806040838503121561123657600080fd5b823591506112466020840161109f565b90509250929050565b6000806040838503121561126257600080fd5b50508035926020909101359150565b6040815260006112846040830185611047565b90508260208301529392505050565b600080604083850312156112a657600080fd5b6112af8361109f565b9150602083013580151581146112c457600080fd5b809150509250929050565b600080600080608085870312156112e557600080fd5b6112ee8561109f565b93506112fc6020860161109f565b925060408501359150606085013567ffffffffffffffff81111561131f57600080fd5b8501601f8101871361133057600080fd5b61133f87823560208401611137565b91505092959194509250565b6000806040838503121561135e57600080fd5b6113678361109f565b91506112466020840161109f565b600181811c9082168061138957607f821691505b6020821081036113a957634e487b7160e01b600052602260045260246000fd5b50919050565b6020808252602d908201527f4552433732313a2063616c6c6572206973206e6f7420746f6b656e206f776e6560408201526c1c881bdc88185c1c1c9bdd9959609a1b606082015260800190565b601f8211156104c057600081815260208120601f850160051c810160208610156114235750805b601f850160051c820191505b818110156114425782815560010161142f565b505050505050565b815167ffffffffffffffff81111561146457611464611121565b611478816114728454611375565b846113fc565b602080601f8311600181146114ad57600084156114955750858301515b600019600386901b1c1916600185901b178555611442565b600085815260208120601f198616915b828110156114dc578886015182559484019460019091019084016114bd565b50858210156114fa5787850151600019600388901b60f8161c191681555b5050505050600190811b01905550565b6000835161151c818460208801611023565b835190830190611530818360208801611023565b01949350505050565b60208082526025908201527f4552433732313a207472616e736665722066726f6d20696e636f72726563742060408201526437bbb732b960d91b606082015260800190565b60208082526032908201527f4552433732313a207472616e7366657220746f206e6f6e20455243373231526560408201527131b2b4bb32b91034b6b83632b6b2b73a32b960711b606082015260800190565b6001600160a01b038581168252841660208201526040810183905260806060820181905260009061160390830184611047565b9695505050505050565b60006020828403121561161f57600080fd5b815161083e81610ff056fea2646970667358221220767c318317819b7cd4cc2f2e6d594db134ca8c34f62ed0225d6e63e3460da3f764736f6c63430008140033",
  "linkReferences": {},
  "deployedLinkReferences": {}
}